:02000000A7282F
:10000600831203132508003A031D3A28851C20286D
:10001600081088120811881488151F30FB007130EB
:10002600FC001E30FD00FD0B1628FC0B1628FB0BF2
:10003600162800008810081534280811881288111F
:10004600081608141F30FB007130FC001E30FD003E
:10005600FD0B2B28FC0B2B28FB0B2B280000081272
:1000660088160130A500003085180130A600F10180
:100076008518F10A7108260603194228A501080009
:1000860083120313A0010A302002031889282708C7
:10009600213E84000008200786000608203A031D3A
:1000A6005628081108140608233A031D5C288811EF
:1000B60008160608263A031D62280812881606083E
:1000C600353A031D6828081088140230FB00863074
:1000D600FC009930FD00FD0B6E28FC0B6E28FB0B17
:1000E6006E280608373A031D8028FF30A7000A301D
:1000F600A000881288108815081505188728FF3073
:10010600A700860103208928A00A4628A70A080016
:0E0116008312031329088A00280882000800BB
:1001240083120313051C982843209928032092283E
:020134000800C1
:100136008B208A110A128000840AA80A0319A90AC8
:08014600F003031D9B280800D3
:10014E0083120313A001A1011030A2002030A300DE
:10015E003030A400A501A601A701073083169F0029
:10016E000514851488018312880183168601831273
:10017E008601831687010F308312870088150815B4
:04018E009220C828CB
:02400E004A2F37
:00000001FF
